:100000000C9462000C948A000C948A000C948A0070
:100010000C948A000C948A000C948A000C948A0038
:100020000C948A000C948A000C948A000C948A0028
:100030000C948A000C948A000C948A000C948A0018
:100040000C9432030C948A000C94A2030C947C034D
:100050000C948A000C948A000C948A000C948A00F8
:100060000C948A000C948A000000000024002700F1
:100070002A0000000000250028002B0000000000DE
:1000800023002600290004040404040404040202DA
:100090000202020203030303030301020408102007
:1000A0004080010204081020010204081020000012
:1000B0000008000201000003040700000000000027
:1000C0000000F10511241FBECFEFD8E0DEBFCDBF89
:1000D00011E0A0E0B1E0E0E9FCE002C005900D9283
:1000E000A632B107D9F721E0A6E2B1E001C01D9226
:1000F000AC3DB207E1F710E0C2E6D0E004C02197C2
:10010000FE010E944006C136D107C9F70E94D40300
:100110000C9446060C940000AF92BF92CF92DF92EF
:10012000EF92FF920F931F93CF93DF936C017B01AC
:100130008B01040F151FEB015E01AE18BF08C0173D
:10014000D10759F06991D601ED91FC910190F081B0
:10015000E02DC6010995892B79F7C501DF91CF9173
:100160001F910F91FF90EF90DF90CF90BF90AF90D5
:100170000895FC01538D448D252F30E0842F90E0AD
:10018000821B930B541710F0CF9608950197089592
:10019000FC01918D828D981761F0A28DAE0FBF2F5B
:1001A000B11D5D968C91928D9F5F9F73928F90E0B1
:1001B00008958FEF9FEF0895FC01918D828D981720
:1001C00031F0828DE80FF11D858D90E008958FEF5D
:1001D0009FEF0895FC01918D228D892F90E0805C26
:1001E0009F4F821B91098F73992708958FE391E0A8
:1001F0000E94EA0021E0892B09F420E0822F089573
:1002000080E090E0892B29F00E94F60081110C9487
:1002100000000895FC01A48DA80FB92FB11DA35AA9
:10022000BF4F2C91848D90E001968F739927848F16
:10023000A689B7892C93A089B1898C918370806439
:100240008C93938D848D981306C00288F389E02DDA
:1002500080818F7D80830895EF92FF920F931F938B
:10026000CF93DF93EC0181E0888F9B8D8C8D981369
:100270001AC0E889F989808185FF15C09FB7F89475
:10028000EE89FF896083E889F989808183708064C1
:1002900080839FBF81E090E0DF91CF911F910F910C
:1002A000FF90EF900895F62E0B8D10E00F5F1F4F1B
:1002B0000F731127E02E8C8D8E110CC00FB607FC2A
:1002C000FACFE889F989808185FFF5CFCE010E94B8
:1002D0000A01F1CFEB8DEC0FFD2FF11DE35AFF4F1B
:1002E000F0829FB7F8940B8FEA89FB898081806246
:1002F000CFCFCF93DF93EC01888D8823B9F0AA8903
:10030000BB89E889F9898C9185FD03C0808186FDD0
:100310000DC00FB607FCF7CF8C9185FFF2CF80811F
:1003200085FFEDCFCE010E940A01E9CFDF91CF9189
:100330000895833081F028F4813099F08230A9F05B
:1003400008958730A9F08830C9F08430B1F48091E5
:1003500080008F7D03C0809180008F778093800024
:10036000089584B58F7784BD089584B58F7DFBCFC4
:100370008091B0008F778093B00008958091B00095
:100380008F7DF9CFCF93DF93282F30E0F901E2552D
:10039000FF4F8491F901E656FF4FD491F901EA57D6
:1003A000FF4FC491CC23A1F081110E949901EC2F41
:1003B000F0E0EE0FFF1FE458FF4FA591B491EC91D0
:1003C000ED2381E090E009F480E0DF91CF91089582
:1003D00080E090E0FACF1F93CF93DF93282F30E097
:1003E000F901E255FF4F8491F901E656FF4FD49190
:1003F000F901EA57FF4FC491CC23A9F0162F8111C0
:100400000E949901EC2FF0E0EE0FFF1FEE58FF4F16
:10041000A591B4918FB7F894EC91111108C0D095C3
:10042000DE23DC938FBFDF91CF911F910895DE2BE8
:10043000F8CFCF93DF9390E0FC01E656FF4F249175
:100440008A579F4FFC0184918823D1F090E0880F58
:10045000991FFC01E859FF4FA591B491FC01EE589A
:10046000FF4FC591D49161110EC09FB7F8948C9144
:10047000E22FE0958E238C932881E223E8839FBFAF
:10048000DF91CF9108958FB7F894EC91E22BEC9324
:100490008FBFF6CF1F93CF93DF93182FEB0161E04F
:1004A0000E941902209739F460E0812FDF91CF91EB
:1004B0001F910C94EB01CF3FD10511F461E0F5CF12
:1004C000E12FF0E0E255FF4FE491E33031F140F4E9
:1004D000E130B1F0E230E1F0C038D1057CF7E4CF93
:1004E000E73029F1E83059F1E430B1F7809180002C
:1004F000806280938000D0938B00C0938A0004C0F8
:1005000084B5806884BDC7BDDF91CF911F910895E8
:1005100084B5806284BDC8BDF7CF809180008068BB
:1005200080938000D0938900C0938800EDCF8091A4
:10053000B00080688093B000C093B300E5CF809195
:10054000B00080628093B000C093B400DDCF8F9282
:100550009F92AF92BF920F931F93CF93DF93CDB72C
:10056000DEB7A1970FB6F894DEBF0FBECDBF19A2BC
:10057000423008F44AE08E010F5D1F4F842E912C0B
:10058000B12CA12CA50194010E941E06E62FB901F1
:10059000CA01EA3044F5E05DD801EE938D01232BCA
:1005A000242B252B79F790E080E0109769F0FD016E
:1005B00001900020E9F73197AF014A1B5B0BBD01A9
:1005C0008FE391E00E948C00A1960FB6F894DEBFF5
:1005D0000FBECDBFDF91CF911F910F91BF90AF9014
:1005E0009F908F900895E95CD7CFFC010190002087
:1005F000E9F73197AF01481B590BBC018FE391E03C
:100600000C948C00CF92DF92EF92FF92CF93DF9306
:100610006C01990FEE08FF08F7FE19C06DE28FE339
:1006200091E00E942C01EC0166277727CB016C1921
:100630007D098E099F094AE00E94A7028C0F9D1F29
:10064000DF91CF91FF90EF90DF90CF9008954AE037
:10065000C701B601DF91CF91FF90EF90DF90CF906F
:100660000C94A7021F920F920FB60F9211242F9392
:100670003F938F939F93AF93BF9380913B01909152
:100680003C01A0913D01B0913E0130913A0123E03F
:10069000230F2D3758F50196A11DB11D20933A0166
:1006A00080933B0190933C01A0933D01B0933E01A8
:1006B0008091360190913701A0913801B0913901B4
:1006C0000196A11DB11D8093360190933701A0932F
:1006D0003801B0933901BF91AF919F918F913F91B4
:1006E0002F910F900FBE0F901F90189526E8230FA3
:1006F0000296A11DB11DD2CF1F920F920FB60F927D
:1007000011242F933F934F935F936F937F938F9316
:100710009F93AF93BF93EF93FF938FE391E00E947A
:100720000A01FF91EF91BF91AF919F918F917F91BE
:100730006F915F914F913F912F910F900FBE0F904E
:100740001F9018951F920F920FB60F9211242F939E
:100750008F939F93EF93FF93E0914F01F09150019E
:100760008081E0915501F091560182FD1BC090817E
:10077000809158018F5F8F7320915901821741F04A
:10078000E0915801F0E0E15CFE4F958F80935801B5
:10079000FF91EF919F918F912F910F900FBE0F902E
:1007A0001F9018958081F4CF789484B5826084BDC1
:1007B00084B5816084BD85B5826085BD85B5816065
:1007C00085BD80916E00816080936E0010928100E3
:1007D000809181008260809381008091810081609E
:1007E000809381008091800081608093800080915F
:1007F000B10084608093B1008091B00081608093EB
:10080000B00080917A00846080937A0080917A00B1
:10081000826080937A0080917A00816080937A0070
:1008200080917A00806880937A001092C10060E025
:100830008AE00E94190260E080E10E94190260E0F3
:1008400085E00E94190260E082E00E94190260E0E7
:1008500083E00E94190260E087E00E94190261E0D3
:1008600086E00E94190261E08BE00E94190261E0BB
:100870008CE00E94190261E08DE00E94190261E0A3
:1008800088E00E94190261E089E00E941902E0916B
:100890004F01F091500182E08083E0914B01F09193
:1008A0004C011082E0914D01F0914E018FEC80835C
:1008B00010925701E0915301F091540186E080833A
:1008C000E0915101F0915201808180618083E0913B
:1008D0005101F0915201808188608083E091510143
:1008E000F0915201808180688083E0915101F09104
:1008F000520180818F7D80838AEF882E912C96E033
:10090000A92EBB24BA9440903401509035016090D8
:100910003201709033018AE00E94C20131E020E090
:10092000892B09F030E0C32ED22E809130019091B6
:100930003101C816D90609F4F0C0D0923101C09235
:10094000300180E10E94C20131E020E0892B09F0F2
:1009500030E0C32FD22F80912E0190912F01C81724
:10096000D90709F4DDC0D0932F01C0932E0185E093
:100970000E94C20131E020E0892B09F030E0032F12
:10098000122F80912C0190912D010817190709F45D
:10099000CAC010932D0100932C0182E00E94C20175
:1009A00031E020E0892B09F030E0E32EF22E809137
:1009B0002A0190912B01E816F90609F4B7C0F092CC
:1009C0002B01E0922A0183E00E94C20131E020E085
:1009D000892B09F030E0232E322E8091280190914E
:1009E00029012816390609F4A4C030922901209261
:1009F000280187E00E94C20131E020E0892B09F044
:100A000030E0832F922F2091260130912701821709
:100A1000930709F491C09093270180932601CD2874
:100A200009F08DC0CD2B09F09FC0012B21F0109251
:100A3000350110923401EF2809F0AAC0232809F0EB
:100A4000BCC0892B21F01092330110923201009129
:100A5000340110913501B80117FF04C066277727CC
:100A6000601B710B86E00E944A02C0913201D09156
:100A70003301BE01D7FF04C0662777276C1B7D0BAF
:100A80008BE00E944A0261E0101611060CF060E053
:100A90008CE00E94EB0161E01C161D060CF060E08A
:100AA0008DE00E94EB0161E00115110509F060E0A5
:100AB00088E00E94EB0161E0209709F060E089E0A6
:100AC0000E94EB014016510619F46C167D06C1F028
:100AD00082E191E00E94F50280913401909135010C
:100AE0000E9402038DE191E00E94F50280913201A3
:100AF000909133010E94020383E291E00E94F5028B
:100B000080E090E0892B09F4FECE0E94F600882355
:100B100009F4F9CE0E940000F6CED12CC12C11CFE1
:100B2000D0E0C0E024CF10E000E037CFF12CE12C82
:100B30004ACF312C212C5DCF90E080E070CF920124
:100B40002E5C3F4F2B3F31052CF430933501209321
:100B5000340168CF9092350180923401CD2B09F495
:100B600064CF28EC30E00AC0209134013091350187
:100B70002253310926304FEF34072CF030933501E2
:100B80002093340152CFB0923501A09234014DCF61
:100B900093012E5C3F4F2B3F31052CF430933301F2
:100BA000209332014BCF909233018092320123285F
:100BB00009F447CF28EC30E00AC02091320130918F
:100BC00033012253310926304FEF34072CF0309394
:100BD00033012093320135CFB0923301A09232011C
:100BE00030CFEFE3F1E01382128288EE93E0A0E0D1
:100BF000B0E084839583A683B78384E091E09183FA
:100C0000808385EC90E09587848784EC90E09787DB
:100C1000868780EC90E0918B808B81EC90E0938BC9
:100C2000828B82EC90E0958B848B86EC90E0978BA6
:100C3000868B118E128E138E148E0895A1E21A2EB9
:100C4000AA1BBB1BFD010DC0AA1FBB1FEE1FFF1F70
:100C5000A217B307E407F50720F0A21BB30BE40BC0
:100C6000F50B661F771F881F991F1A9469F7609507
:100C70007095809590959B01AC01BD01CF010895C1
:100C8000EE0FFF1F0590F491E02D0994F894FFCF2B
:100C9000000000002C018C00B9007901EA00C800B6
:100CA000DC0053706565642041203D200020422017
:060CB0003D20000D0A00CA
:00000001FF
